:100000000C9479010C94AA010C94AA010C94AA01F5
:100010000C94AA010C94AA010C94AA010C94AA01B4
:100020000C94AA010C94AA010C94AA010C94AA01A4
:100030000C94AA010C94AA010C94AA010C94AA0194
:100040000C94AA010C94AA010C94AA010C94AA0184
:100050000C94AA010C94AA010C94AA010C942607F2
:100060000C94AA010C949A070C9470070C94AA01A2
:100070000C94AA010C94AA010C94AA010C94AA0154
:100080000C94AA010C94AA010C94AA010C94AA0144
:100090000C94AA010C94AA010C94AA010C94AA0134
:1000A0000C94AA010C94AA010C94AA010C94AA0124
:1000B0000C94AA010C94AA010C94AA010C94AA0114
:1000C0000C94AA010C94AA010C94AA010C94AA0104
:1000D0000C94AA010C94AA010C94AA010C94AA01F4
:1000E0000C94AA010C94D0050C9442060C94630362
:1000F0000C9440030C94AE0A0C9473060C941303F6
:100100000C9416020C94060B0C9427060C94A7066C
:100110000C94760A0C94A9030C94FB030C944F03E3
:100120000C940E020C94FE010C94660A0C94EF01E0
:100130000C94970A0C94BE050C94E9010C94F301FD
:100140000C941E0A0C94D70A0C9412020C9404020C
:100150000C9480060C9492090C94D0070C945C06C5
:100160000C9471030C94800A0C942A0A0C94000BD2
:100170000C940D0B0C941C020C945A0A0C947B0AE0
:100180000C942E020C9400060C9424020C94C20AC7
:100190000C948D060C94480A0C9420020C94F405DF
:1001A0000C942A020C94000A0C9435060C946F0AE5
:1001B0000C940C0A0C943C0A0C94F7010C94290240
:1001C0000C9408020C94FB010C94E8050C941A069C
:1001D000000020002300260029002C002F00320000
:1001E0000001000003010601090100000A0B0209D9
:1001F0000C0D0E08070304010000000000000000C1
:1002000000000000000000000000000000000000EE
:1002100000000000000012111000000000000000AB
:1002200000000000000000000000000000000000CE
:1002300000002200250028002B002E003100340091
:1002400002010000050108010B010000210024004B
:1002500027002A002D0030003300010100000401B6
:1002600007010A0105050505070508080808020237
:1002700002020A0A08080404040401010101010140
:1002800001010303030303030303040707070C0C23
:100290000C0C0C0C0C0C02020202060606060606EA
:1002A00006060B0B0B0B0B0B0B0B0102102020088F
:1002B00008102040102040800201020108040201C1
:1002C0000102040810204080804020100804020130
:1002D0008004020180402010080402010804020189
:1002E0000102040810204080010204081020408010
:1002F000D00711241FBECFEFD1E2DEBFCDBF00E09B
:100300000CBF12E0A0E0B2E0E4EEF9E100E00BBFC8
:1003100002C007900D92A231B107D9F723E0A2E104
:10032000B2E001C01D92AE32B207E1F711E0C9E7B9
:10033000D1E000E006C021970109802FFE010E9454
:10034000230BC837D10780E00807A9F70E9471087E
:100350000C94F00C0C94000090E0FC01E655FD4F6D
:1003600024918C599D4FFC018491882399F090E051
:10037000880F991FFC01E65BFD4FA591B491FC012C
:10038000E05DFD4F859194918FB7F894EC91E22B4D
:10039000EC938FBF08958150823108F05AC0E82F46
:1003A000F0E08827E952FE4F8F4F0C94230BF701A2
:1003B000FB01E901EF01F3012902FE010402080239
:1003C0000E02120216021C022002290224022A0234
:1003D0002E02809180008F77809380000895809115
:1003E00080008F7DF9CF80918000877FF5CF84B525
:1003F0008F7784BD089584B58F7DFBCF8091B00049
:100400008F778093B00008958091B0008F7DF9CFF1
:10041000809190008F778093900008958091900054
:100420008F7DF9CF80919000877FF5CF8091A000DC
:100430008F778093A00008958091A0008F7DF9CFE1
:100440008091A000877FF5CF809120018F778093E6
:1004500020010895809120018F7DF9CF80912001A6
:10046000877FF5CFCF93DF93282F30E0F901E65156
:10047000FE4F8491F901E655FD4FD491F901EC59F5
:10048000FD4FC491CC23A1F081110E94CB01EC2F30
:10049000F0E0EE0FFF1FE053FE4FA591B491EC91F9
:1004A000ED2381E090E009F480E0DF91CF910895A1
:1004B00080E090E0FACF1F93CF93DF93282F30E0B6
:1004C000F901E651FE4F8491F901E655FD4FD491B3
:1004D000F901EC59FD4FC491CC23A9F0162F8111DD
:1004E0000E94CB01EC2FF0E0EE0FFF1FE05DFD4F0F
:1004F000A591B4918FB7F894EC91111108C0D095E3
:10050000DE23DC938FBFDF91CF911F910895DE2B07
:10051000F8CF0F931F93CF93DF93EC01862F68835F
:1005200079835B834A833D832C831F830E8328EC6E
:1005300030E0398728871B861A861C861D861E8612
:100540001F860E94AC018A810E94AC018C810E94AE
:10055000AC0160E088810E945B0260E08A810E94B9
:100560005B0261E08C81DF91CF911F910F910C9420
:100570005B023FB7F8948091130290911402A0910E
:100580001502B091160226B5A89B05C02F3F19F0A1
:100590000196A11DB11D3FBFBA2FA92F982F882703
:1005A000BC01CD01620F711D811D911D42E0660FDE
:1005B000771F881F991F4A95D1F708958F929F92B0
:1005C000AF92BF92CF92DF92EF92FF920E94B90258
:1005D0004B015C0184E1C82ED12CE12CF12C0E944E
:1005E000B902681979098A099B09683E7340810537
:1005F0009105A8F321E0C21AD108E108F10888EEBC
:10060000880E83E0981EA11CB11CC114D104E10422
:10061000F10429F7FF90EF90DF90CF90BF90AF905B
:100620009F908F900895AF92BF92CF92DF92EF92FA
:10063000FF920F931F93CF93DF936C017B018B018C
:10064000040F151FEB015E01AE18BF08C017D107DC
:1006500059F06991D601ED91FC910190F081E02D66
:10066000C6011995892B79F7C501DF91CF911F91AB
:100670000F91FF90EF90DF90CF90BF90AF900895D3
:10068000FC01538D448D252F30E0842F90E0821B98
:10069000930B541710F0CF96089501970895FC011D
:1006A000918D828D981761F0A28DAE0FBF2FB11D75
:1006B0005D968C91928D9F5F9F73928F90E00895CD
:1006C0008FEF9FEF0895FC01918D828D981731F087
:1006D000828DE80FF11D858D90E008958FEF9FEFDB
:1006E0000895FC01918D228D892F90E0805C9F4FB1
:1006F000821B91098F739927089588E192E00E94E7
:10070000710321E0892B09F420E0822F0895FC0178
:10071000A48DA80FB92FB11DA35ABF4F2C91848D62
:1007200090E001968F739927848FA689B7892C93BF
:10073000A089B1898C91837080648C93938D848D12
:10074000981306C00288F389E02D80818F7D808315
:100750000895EF92FF920F931F93CF93DF93EC01D5
:1007600081E0888F9B8D8C8D98131AC0E889F98958
:10077000808185FF15C09FB7F894EE89FF8960835B
:10078000E889F98980818370806480839FBF81E0DC
:1007900090E0DF91CF911F910F91FF90EF9008951E
:1007A000F62E0B8D10E00F5F1F4F0F731127E02EF9
:1007B0008C8D8E110CC00FB607FCFACFE889F98931
:1007C000808185FFF5CFCE010E948703F1CFEB8DAD
:1007D000EC0FFD2FF11DE35AFF4FF0829FB7F89405
:1007E0000B8FEA89FB8980818062CFCF682F88E1F7
:1007F00092E00C94A903CF93DF93EC01888D8823BA
:10080000B9F0AA89BB89E889F9898C9185FD03C073
:10081000808186FD0DC00FB607FCF7CF8C9185FF58
:10082000F2CF808185FFEDCFCE010E948703E9CF13
:10083000DF91CF91089580E090E0892B29F00E940C
:100840007D0381110E94000080E090E0892B49F037
:1008500080E090E0892B29F00E94000081110E9425
:10086000000080E090E0892B49F080E090E0892B47
:1008700029F00E94000081110E94000080E090E0B9
:10088000892B49F080E090E0892B29F00E9400003C
:1008900081110C9400000895CF93DF93EC018A81BD
:1008A0000E945B0261E088810E945B020E94DE027E
:1008B00060E088810E945B02DF91CF910C94DE02A0
:1008C00083309105D1F03CF48130910569F00297B5
:1008D00089F080E0089585309105A9F08CF00697A5
:1008E000C1F789E193E002C084ED92E00E944C04DC
:1008F00081E0089582EC92E0F9CF86EE92E0F6CFA7
:1009000087EF92E0F3CF88E093E0F0CF21E0622719
:10091000FC0184810C945B0261E086EE92E00E940F
:10092000860461E082EC92E00E94860461E087EF39
:1009300092E00E94860461E088E093E00E948604D1
:1009400061E089E193E00E94860461E084ED92E039
:100950000E94860481E00895CF92DF92EF92FF9289
:100960000F931F93CF93DF93EC018A859B85892B8F
:10097000E9F18C859D85AE85BF85481759076A07C3
:100980007B0750F480E0DF91CF911F910F91FF9092
:10099000EF90DF90CF9008956A017B010E811F8157
:1009A00088810E94320261E0892B09F060E0888131
:1009B0000E945B0284EF91E0B8010E940F0BAB0133
:1009C000770F660B770B4C0D5D1D6E1D7F1D4C87E1
:1009D0005D876E877F8788810E943202892B91F61E
:1009E0008A859B8501979B878A87CCCF81E0CBCF77
:1009F0008F929F92AF92BF92EF92FF920F931F93AD
:100A0000CF93DF93EC01862F7A01B901A8011889F1
:100A1000111138C0682F8A810E945B026885798530
:100A2000072E000C880B990B0E94E90B20E030E0A8
:100A300044EB53E40E943F0B4B015C018AE58E9D21
:100A4000B0018F9D700D1124072E000C880B990B9F
:100A50000E94E90B9B01AC01C501B4010E94750C19
:100A60000E94B10B7B876A8781E0888B812FDF91A1
:100A7000CF911F910F91FF90EF90BF90AF909F90FB
:100A80008F900895CE010E94AC04182F882371F333
:100A9000188AECCF8F929F92AF92BF92EF92FF9203
:100AA0001F93CF93DF93EC01862FBA01A901109118
:100AB0001702111134C0E888F988682F8A810E94D2
:100AC0005B0268857985072E000C880B990B0E94C4
:100AD000E90B20E030E044EB53E40E943F0B4B0174
:100AE0005C01B701FF0C880B990B0E94E90B9B017D
:100AF000AC01C501B4010E94750C0E94B10B7B874B
:100B00006A8781E080931702812FDF91CF911F9137
:100B1000FF90EF90BF90AF909F908F900895CE017F
:100B20000E94AC04182F882379F310921702ECCF9F
:100B3000CF92DF92EF92FF920F931F93CF93E091AA
:100B40002A03F0912B03EE30F10508F579019A01A3
:100B5000AB01682F8827E055FA4F8F4F0C94230B79
:100B6000BE05D005E805F40500061A062706350679
:100B700042065C06730680068D06A706A70198014B
:100B800060E084ED92E00E944A05811102C080E09D
:100B9000ECC081E090E090932B0380932A03F7CF81
:100BA000970141E050E061E088E093E00E94F804A2
:100BB000C82F970141E050E060E089E193E00E9496
:100BC000F804CC2321F3882311F382E090E0E3CFF3
:100BD000A701980161E084ED92E00E944A05882314
:100BE000B1F283E090E0D7CFA701980160E082ECFA
:100BF00092E00E944A05882351F284E090E0CBCF36
:100C0000970141E050E061E088E093E00E94F80441
:100C1000C82F970141E050E060E089E193E00E9435
:100C2000F804CC2309F4B3CF882309F4B0CF85E0CE
:100C300090E0B1CFA701980161E082EC92E00E94C0
:100C40004A05882309F4A3CF86E090E0A4CF232BA4
:100C500009F093C0970186EE92E00E94F804882381
:100C600009F495CF87E090E096CFA701980160E066
:100C700084ED92E00E944A05882309F488CF88E039
:100C800090E089CF970141E050E060E088E093E098
:100C90000E94F804C82F970141E050E061E089E12B
:100CA00093E00E94F804CC2309F471CF882309F45F
:100CB0006ECF89E090E06FCFE1E0E627CA0162E005
:100CC00070E00E940F0BAC01232B09F05AC0970172
:100CD0006E2F86EE92E00E94F804882309F457CF25
:100CE0008AE090E058CFA701980161E084ED92E09E
:100CF0000E944A05882309F44ACF8BE090E04BCF4D
:100D0000A701980160E082EC92E00E944A058823E6
:100D100009F43DCF8CE090E03ECF970141E050E0F8
:100D200060E088E093E00E94F804C82F970141E05A
:100D300050E061E089E193E00E94F804CC2309F4DB
:100D400026CF882309F423CF8DE090E024CFA7019C
:100D5000980161E082EC92E00E944A05882309F440
:100D600016CF10922B0310922A03CF911F910F914F
:100D7000FF90EF90DF90CF900895970187EF92E07A
:100D80006CCF97016E2F87EF92E0A5CFCF92DF92C5
:100D9000EF92FF920F931F93CF936C01CB01C42F5F
:100DA000A90198018701E0912C03F0912D03E23015
:100DB000F105B9F124F4EF2B31F180E03FC0E630CA
:100DC000F105B1F03997C9F782E0E82EF12CCA019C
:100DD000B7010E940F0B61E06C27AC01C6010E94B5
:100DE000F804882351F3F0922D03E0922C03E5CF11
:100DF0006C2FC6010E94F8048823F9F210922D038B
:100E000010922C03DACFA901970160E00E944A05F5
:100E1000882399F289E090E090932D0380932C032E
:100E2000CCCFA901970161E00E944A05882329F2ED
:100E300026E030E030932D0320932C03CF911F91B7
:100E40000F91FF90EF90DF90CF9008951F920F9237
:100E50000FB60F9211242F933F938F939F93AF93CD
:100E6000BF938091B5029091B602A091B702B09164
:100E7000B8023091120223E0230F2D3758F5019666
:100E8000A11DB11D209312028093B5029093B6026A
:100E9000A093B702B093B80280911302909114020C
:100EA000A0911502B09116020196A11DB11D80936B
:100EB000130290931402A0931502B0931602BF91EF
:100EC000AF919F918F913F912F910F900FBE0F90F7
:100ED0001F90189526E8230F0296A11DB11DD2CFB1
:100EE0001F920F920FB60F9211240BB60F922F93F1
:100EF0003F934F935F936F937F938F939F93AF93A2
:100F0000BF93EF93FF9388E192E00E948703FF91E4
:100F1000EF91BF91AF919F918F917F916F915F9171
:100F20004F913F912F910F900BBE0F900FBE0F90DE
:100F30001F9018951F920F920FB60F9211240BB6A7
:100F40000F922F938F939F93EF93FF93E09128023B
:100F5000F09129028081E0912E02F0912F0282FD12
:100F60001DC09081809131028F5F8F73209132027A
:100F7000821741F0E0913102F0E0E85EFD4F958F7D
:100F800080933102FF91EF919F918F912F910F905C
:100F90000BBE0F900FBE0F901F9018958081F2CF5F
:100FA000EF92FF920F931F93CF93DF93E8E1F2E06C
:100FB0001382128288EE93E0A0E0B0E084839583F0
:100FC000A683B78384E092E09183808385EC90E0F0
:100FD0009587848784EC90E09787868780EC90E003
:100FE000918B808B81EC90E0938B828B82EC90E0F4
:100FF000958B848B86EC90E0978B868B118E128E6E
:10100000138E148EC9EBD2E08AE088831A8219828B
:101010001C821B822FB7F8948091B5029091B60282
:10102000A091B702B091B8022FBF8D839E83AF838A
:10103000B8870EE011E02FE130E04BE050E06AE0CD
:1010400070E082EC92E00E9489028AEFE82EF12C97
:10105000FA8EE98E29E230E045E050E064E070E08D
:1010600084ED92E00E948902FCA6EBA60EEB10E054
:1010700025E230E04DE050E06CE070E086EE92E07A
:101080000E94890223E230E047E050E066E070E031
:1010900087EF92E00E94890227E230E049E050E0C9
:1010A00068E070E088E093E00E94890221E230E08D
:1010B00043E050E062E070E089E193E00E94890241
:1010C00010922B0310922A0386E090E090932D0358
:1010D00080932C03DF91CF911F910F91FF90EF90A0
:1010E0000895789484B5826084BD84B5816084BDA0
:1010F00085B5826085BD85B5816085BD80916E00B6
:10110000816080936E0010928100809181008260E6
:101110008093810080918100816080938100809123
:1011200080008160809380008091B1008460809312
:10113000B1008091B00081608093B00080919100F7
:1011400082608093910080919100816080939100F2
:10115000809190008160809390008091A1008260D6
:101160008093A1008091A10081608093A100809173
:10117000A00081608093A000809121018260809313
:1011800021018091210181608093210180912001C2
:1011900081608093200180917A00846080937A003E
:1011A00080917A00826080937A0080917A008160D9
:1011B00080937A0080917A00806880937A00109200
:1011C000C100E0912802F091290282E08083E09141
:1011D0002402F09125021082E0912602F09127026C
:1011E00080E1808310923002E0912C02F0912D0278
:1011F00086E08083E0912A02F0912B028081806159
:101200008083E0912A02F0912B02808188608083A4
:10121000E0912A02F0912B02808180688083E09126
:101220002A02F0912B0280818F7D80830E948C04A2
:1012300088E192E00E9471030297C4F1CCEBD2E006
:1012400088E192E00E947103892B31F088E192E0FD
:101250000E944F038993F4CFC091BC028C2F0C2EB7
:10126000000C990B0E94E50C892BD9F08091BD02EE
:10127000082E000C990BC0978A30910590F4C0930A
:10128000B9029093BB028093BA0288E192E00E9477
:101290007103892B09F454C088E192E00E944F0346
:1012A000F4CF8CE495E50E94F603C2CF2FB7F894F3
:1012B0008091B5029091B602A091B702B091B802A8
:1012C0002FBF4091BE025091BF026091C002709149
:1012D000C102841B950BA60BB70B883E9340A1055A
:1012E000B10508F4A5CF88E192E00E947103892B33
:1012F00029F088E192E00E944F03F5CF2FB7F894D0
:101300008091B5029091B602A091B702B091B80257
:101310002FBF8093BE029093BF02A093C002B093F0
:10132000C10286CFC0FF63C0850174019E0140E009
:1013300064ED72E087EF92E00E94C60681115DC104
:10134000C091BA02D091BB02E091B9028FB7F89474
:101350008090B5029090B602A090B702B090B8020B
:101360008FBFE154E93308F051C10E2E000CFF0B82
:101370008827E254F64F8F4F0C94230B000B480A3A
:10138000060B760AD70A2A0A060B060B060B060B73
:10139000060B0C0A060B060B060B060B060B920936
:1013A000060B060B660A060B060B800AAE0A060B36
:1013B000060B060B060B060B060B060B0D0B5A0A4B
:1013C000060B7B0A060B3C0A060B060B060B060BEC
:1013D000060B1E0A060B060B060B060B060B000A75
:1013E000060B060B6F0A060B060B970AC20A95013D
:1013F0008401AE0160E087EF92E00E94F8049ECF86
:10140000C0FF05C0850174019E0141E091CF9501A7
:101410008401AE0161E0EFCFC0FF09C08501740116
:101420009E0140E064ED72E086EE92E085CF95018A
:101430008401AE0160E086EE92E0DFCFC0FF05C020
:10144000850174019E0141E0EDCF95018401AE015B
:1014500061E0F1CFC0FF09C0850174019E0140E049
:1014600062EC72E088E093E067CF95018401AE0101
:1014700060E088E093E0C1CFC0FF05C08501740142
:101480009E0141E0EDCF95018401AE0161E0F1CF15
:10149000C0FF09C0850174019E0140E062EC72E06A
:1014A00089E193E049CF95018401AE0160E089E1D3
:1014B00093E0A3CFC0FF05C0850174019E0141E008
:1014C000EDCF95018401AE0161E0F1CF950184017A
:1014D00050E040E0BE0180E00E9498052FCF9501CA
:1014E000840150E040E0BE0181E0F6CF9501840127
:1014F00041E050E0EFCF9501840141E050E0F3CFAF
:10150000A501940160E02097B9F095018401AE0136
:1015100061E086EE92E00E94F804F82E9501AE019B
:1015200060E087EF92E00E94F8048F2107CF2097B8
:1015300041F4A501940161E084ED92E00E944A0526
:10154000FDCE95018401AE0160E086EE92E00E943E
:10155000F804F82E9501AE0161E0E3CFA5019401F6
:1015600060E02097A1F095018401AE0160E088E081
:1015700093E00E94F804F82E9501AE0161E089E144
:1015800093E0D1CF209731F4A501940161E082EC82
:1015900092E0D4CF95018401AE0161E088E093E050
:1015A0000E94F804F82E9501AE0160E0E8CFC1304A
:1015B000D10519F40E948C04C1CE229739F560E060
:1015C00086EE92E00E94860460E082EC92E00E9447
:1015D000860460E087EF92E00E94860460E088E085
:1015E00093E00E94860460E089E193E00E94860413
:1015F00060E084ED92E00E9486048BE493E408C0EE
:1016000060E0CE010E9460048111F7CF8CE495E583
:101610000E94F6030E941B040BCE61E0F2CF97FB01
:10162000072E16F4009407D077FD09D00E942B0BEB
:1016300007FC05D03EF4909581959F4F08957095D5
:1016400061957F4F0895EE0FFF1F881F8BBF079096
:10165000F691E02D1994AA1BBB1B51E107C0AA1FEC
:10166000BB1FA617B70710F0A61BB70B881F991F43
:101670005A95A9F780959095BC01CD0108950E94D7
:10168000530B0C943B0C0E94340C58F00E942D0C10
:1016900040F029F45F3F29F00C94240C51110C9474
:1016A0006F0C0C942A0C0E944C0C68F39923B1F334
:1016B000552391F3951B550BBB27AA276217730778
:1016C000840738F09F5F5F4F220F331F441FAA1F0C
:1016D000A9F335D00E2E3AF0E0E832D091505040C8
:1016E000E695001CCAF72BD0FE2F29D0660F771F76
:1016F000881FBB1F261737074807AB07B0E809F05C
:10170000BB0B802DBF01FF2793585F4F3AF09E3FE0
:10171000510578F00C94240C0C946F0C5F3FE4F3AB
:10172000983ED4F3869577956795B795F7959F5F23
:10173000C9F7880F911D9695879597F90895E1E06F
:10174000660F771F881FBB1F621773078407BA07CE
:1017500020F0621B730B840BBA0BEE1F88F7E09529
:1017600008950E94B80B6894B1110C946F0C089501
:101770000E94540C88F09F5798F0B92F9927B751C1
:10178000B0F0E1F0660F771F881F991F1AF0BA9525
:10179000C9F714C0B13091F00E946E0CB1E0089509
:1017A0000C946E0C672F782F8827B85F39F0B93FFB
:1017B000CCF3869577956795B395D9F73EF49095D8
:1017C0008095709561957F4F8F4F9F4F0895E89456
:1017D00009C097FB3EF490958095709561957F4F79
:1017E0008F4F9F4F9923A9F0F92F96E9BB27939527
:1017F000F695879577956795B795F111F8CFFAF437
:10180000BB0F11F460FF1BC06F5F7F4F8F4F9F4F67
:1018100016C0882311F096E911C0772321F09EE8C5
:10182000872F762F05C0662371F096E8862F70E02B
:1018300060E02AF09A95660F771F881FDAF7880F05
:101840009695879597F9089597F99F6780E870E0D6
:1018500060E008959FEF80EC089500240A94161626
:10186000170618060906089500240A94121613068E
:10187000140605060895092E0394000C11F488231C
:1018800052F0BB0F40F4BF2B11F460FF04C06F5F38
:101890007F4F8F4F9F4F089557FD9058440F551F0E
:1018A00059F05F3F71F04795880F97FB991F61F0E2
:1018B0009F3F79F087950895121613061406551F59
:1018C000F2CF4695F1DF08C0161617061806991FC5
:1018D000F1CF86957105610508940895E894BB27BA
:1018E00066277727CB0197F908950E94880C0C94FE
:1018F0003B0C0E942D0C38F00E94340C20F09523F4
:1019000011F00C94240C0C942A0C11240C946F0CE0
:101910000E944C0C70F3959FC1F3950F50E0551F3A
:10192000629FF001729FBB27F00DB11D639FAA2734
:10193000F00DB11DAA1F649F6627B00DA11D661F83
:10194000829F2227B00DA11D621F739FB00DA11DA4
:10195000621F839FA00D611D221F749F3327A00D5E
:10196000611D231F849F600D211D822F762F6A2FFA
:1019700011249F5750409AF0F1F088234AF0EE0F5F
:10198000FF1FBB1F661F771F881F91505040A9F78C
:101990009E3F510580F00C94240C0C946F0C5F3F1B
:1019A000E4F3983ED4F3869577956795B795F795C8
:1019B000E7959F5FC1F7FE2B880F911D9695879540
:1019C00097F9089585FD0C94ED0C806291110C94AB
:1019D000ED0C81568A51D8F70895992788270895E4
:0419E000F894FFCFA9
:1019E40000000000A90313034003FB0371034F032A
:0219F40063038B
:00000001FF
